:020000040000FA
:100000000C9463000C948B000C948B000C948B006C
:100010000C948B000C948B000C948B000C948B0034
:100020000C948B000C948B000C948B000C948B0024
:100030000C948B000C948B000C948B000C948B0014
:100040000C946D0A0C948B000C94DD0A0C94B70A86
:100050000C948B000C948B000C948B000C948B00F4
:100060000C940F0B0C948B00000000002400270060
:100070002A0000000000250028002B0000000000DE
:1000800023002600290004040404040404040202DA
:100090000202020203030303030301020408102007
:1000A0004080010204081020010204081020000012
:1000B0000008000201000003040700000000000027
:1000C00000002A0CFB0F11241FBECFEFD8E0DEBFCB
:1000D000CDBF11E0A0E0B1E0ECEFF7E202C0059087
:1000E0000D92AC3EB107D9F723E0ACEEB1E001C010
:1000F0001D92AF3CB207E1F710E0C2E6D0E004C0C9
:100100002197FE010E94C612C136D107C9F70E948D
:10011000550D0C94F1130C9400008230910538F0C9
:10012000880F991F880F991F05970197F1F7089578
:10013000CF92DF92EF92FF920F931F93CF93DF93B3
:100140002091AF033091B003232B79F08EBD0DB415
:1001500007FEFDCFDEB48D2DDF91CF911F910F9162
:10016000FF90EF90DF90CF9008952091B7033091EA
:10017000B803C1E0232B09F0C0E8CC24C394982F26
:100180009C2309F0C12CD82F2091B3033091B403E4
:100190004091B5035091B60360E271EA87E090E0C8
:1001A0000E94A412122FDD2E00E0E22EF12C11236A
:1001B00019F0C7010E948D008091B903877F09F073
:1001C00054C08091BC038F3FA1F09D2F9C2381E000
:1001D00009F480E08C1569F0E091BE03F091BF0353
:1001E0008091C6039923D9F19081892B8083CC24F7
:1001F000C394E091C003F091C10380819091C80342
:10020000892B8083112319F0C7010E948D008091F2
:10021000BD038F3F51F0E091C203F091C303808191
:100220009091C703892309F00C2BE091C003F09152
:10023000C10390818091C803809589238083809138
:10024000BD038F3F09F0D02E8091B7039091B80382
:10025000892B09F047C0CC0FC111A9CF7CCF908169
:10026000809589238083C12CC4CFE091C003F09195
:10027000C10380819091C803892B8083112319F0D9
:10028000C7010E948D008091BC038F3F61F0E09117
:10029000BE03F091BF038091C6039D2F9C23F1F014
:1002A0009081892B8083E091C003F091C1039081FC
:1002B0008091C8038095892380838091BD038F3FFF
:1002C00009F4BDCFE091C203F091C3038081909106
:1002D000C703892309F4B3CF0C2BB1CF908180954C
:1002E0008923E0CFC695B8CF833081F028F48130E0
:1002F00099F08230A9F008958730A9F08830C9F0CC
:100300008430B1F4809180008F7D03C080918000A3
:100310008F7780938000089584B58F7784BD08958A
:1003200084B58F7DFBCF8091B0008F778093B00034
:1003300008958091B0008F7DF9CFCF93DF93282F60
:1003400030E0F901E255FF4F8491F901E656FF4F85
:10035000D491F901EA57FF4FC491CC23A1F0811148
:100360000E947401EC2FF0E0EE0FFF1FE458FF4FE6
:10037000A591B491EC91ED2381E090E009F480E047
:10038000DF91CF91089580E090E0FACF1F93CF9353
:10039000DF93282F30E0F901E255FF4F8491F901F6
:1003A000E656FF4FD491F901EA57FF4FC491CC2391
:1003B000A9F0162F81110E947401EC2FF0E0EE0FCE
:1003C000FF1FEE58FF4FA591B4918FB7F894EC91B1
:1003D000111108C0D095DE23DC938FBFDF91CF9140
:1003E0001F910895DE2BF8CF8091AD030E949D01EF
:1003F00061E0892B09F060E08091AD030E94C601A5
:100400008091AD030E949D0121E0892B09F420E039
:10041000822F08958091AF039091B003892B41F012
:10042000E091B103F091B203908181819CBD8DBDBB
:100430008091BA038F3F19F060E00C94C6010895D3
:100440008091BA038F3F19F061E00C94C6010895C2
:10045000CF93DF93D82FC62F0E940A028D2F80687A
:100460000E9498008C2F0E949800DF91CF910C94ED
:100470002002EF92FF920F931F93CF93DF93EC0133
:100480007B018A010E940A0288810E949800E7018C
:100490000E0D1F1DC017D10729F08FEF0E94980085
:1004A0008993F8CF0E94200281E0DF91CF911F91C4
:1004B0000F91FF90EF900895CF93DF9300D0CDB7C9
:1004C000DEB71A82898341E050E0BE016E5F7F4F44
:1004D000CE0101960E9439028A810F900F90DF9120
:1004E000CF91089580E00E945C02837D682F626056
:1004F00080E00C942802CF93C82F80E00E945C0219
:10050000682FCC2329F0606880E0CF910C942802FA
:100510006F77FACFCF93DF9390E0FC01E656FF4F61
:1005200024918A579F4FFC0184918823D1F090E059
:10053000880F991FFC01E859FF4FA591B491FC0168
:10054000EE58FF4FC591D49161110EC09FB7F8943A
:100550008C91E22FE0958E238C932881E223E8830F
:100560009FBFDF91CF9108958FB7F894EC91E22B64
:10057000EC938FBFF6CF3FB7F894809163029091D0
:100580006402A0916502B091660226B5A89B05C0E1
:100590002F3F19F00196A11DB11D3FBFBA2FA92F02
:1005A000982F8827BC01CD01620F711D811D911DFF
:1005B00042E0660F771F881F991F4A95D1F708956B
:1005C0008F929F92AF92BF92CF92DF92EF92FF9263
:1005D0004B015C010E94BB026B017C010E94BB02CB
:1005E0006C197D098E099F09683E7340810591054C
:1005F000A8F321E0821A9108A108B10888EEC80E7C
:1006000083E0D81EE11CF11C81149104A104B10403
:1006100029F7FF90EF90DF90CF90BF90AF909F9021
:100620008F900895DC01ED91FC910190F081E02D17
:100630000994AF92BF92CF92DF92EF92FF920F9305
:100640001F93CF93DF936C017B018B01040F151F68
:10065000EB015E01AE18BF08C017D10759F06991D0
:10066000D601ED91FC910190F081E02DC601099534
:10067000892B79F7C501DF91CF911F910F91FF90E1
:10068000EF90DF90CF90BF90AF900895FC01538D15
:10069000448D252F30E0842F90E0821B930B54175C
:1006A00010F0CF96089501970895FC01918D828DE9
:1006B000981761F0A28DAE0FBF2FB11D5D968C9182
:1006C000928D9F5F9F73928F90E008958FEF9FEFC1
:1006D0000895FC01918D828D981731F0828DE80F7D
:1006E000F11D858D90E008958FEF9FEF0895FC0137
:1006F000918D228D892F90E0805C9F4F821B910904
:100700008F739927089587E692E00E94770321E08E
:10071000892B09F420E0822F089580E090E0892B56
:1007200029F00E94830381110C9400000895FC01BC
:10073000A48DA80FB92FB11DA35ABF4F2C91848D42
:1007400090E001968F739927848FA689B7892C939F
:10075000A089B1898C91837080648C93938D848DF2
:10076000981306C00288F389E02D80818F7D8083F5
:100770000895EF92FF920F931F93CF93DF93EC01B5
:1007800081E0888F9B8D8C8D98131AC0E889F98938
:10079000808185FF15C09FB7F894EE89FF8960833B
:1007A000E889F98980818370806480839FBF81E0BC
:1007B00090E0DF91CF911F910F91FF90EF900895FE
:1007C000F62E0B8D10E00F5F1F4F0F731127E02ED9
:1007D0008C8D8E110CC00FB607FCFACFE889F98911
:1007E000808185FFF5CFCE010E949703F1CFEB8D7D
:1007F000EC0FFD2FF11DE35AFF4FF0829FB7F894E5
:100800000B8FEA89FB8980818062CFCFCF93DF9302
:10081000EC01888D8823B9F0AA89BB89E889F98918
:100820008C9185FD03C0808186FD0DC00FB607FC4D
:10083000F7CF8C9185FFF2CF808185FFEDCFCE0180
:100840000E949703E9CFDF91CF9108952091130281
:10085000260F3327331F21323105ECF42091370264
:10086000FC0190E080E0243069F082E00895A091DE
:1008700013022191AC014D505E4FA40FB52FB11D55
:100880002C930196861798F380911302680F60935A
:10089000130280E0089581E0089508958FEF9FEF9F
:1008A00008958FEF9FEF08958091EC0190E091956E
:1008B000819591090895CF93DF93CB01EA01642FCD
:1008C0000E942604CE01DF91CF910895CF93DF934C
:1008D0001F92CDB7DEB7698361E0CE0101960E9419
:1008E000260481E090E00F90DF91CF910895089564
:1008F00090E080E00895CF93DF93EC0160E08E817B
:100900000E94C60161E08E810E94C60160E08E8176
:100910000E94C6018BE891E00197F1F7DF91CF913A
:100920000895CF92DF92EF92FF920F931F93CF9390
:10093000DF936C017C0187E0E80EF11CD0E0C0E0A1
:10094000062F10E0B8010C2E02C0759567950A9429
:10095000E2F76170F70181917F010E94C601219643
:10096000C430D10579F7C601DF91CF911F910F9166
:10097000FF90EF90DF90CF900C947B04CF92DF92AA
:10098000EF92FF920F931F93CF93DF93EC01F62E1C
:10099000642F8C810E94C6018D818F3F19F060E029
:1009A0000E94C6010F2D10E08F8584FF25C06E01C7
:1009B00087E0C80ED11CF12CE12CB8010E2C02C02E
:1009C000759567950A94E2F76170F60181916F0160
:1009D0000E94C601FFEFEF1AFF0A88E0E816F10453
:1009E00061F7CE01DF91CF911F910F91FF90EF90B2
:1009F000DF90CF900C947B04B80184E075956795E7
:100A00008A95E1F7CE010E9491046F2DCE01DF910E
:100A1000CF911F910F91FF90EF90DF90CF900C94AA
:100A2000910441E00E94BE0481E090E0089540E01E
:100A30000C94BE04EF92FF920F931F93CF93DF931A
:100A40008C017A01677088E0689FB00111246064AE
:100A5000C8010E941705E701A8E0EA0EF11C6991A0
:100A6000D801ED91FC910190F081E02DC80109952C
:100A7000CE15DF05A1F7DF91CF911F910F91FF9068
:100A8000EF900895443008F043E0FC0123894217B9
:100A900010F04FEF420FFC01E40FF11D2489620FAB
:100AA00060680C94170561E00E9417058BE39FE1D5
:100AB0000197F1F70895CF93DF93823029F4909155
:100AC000A30398609093A3038093A7031092A803B5
:100AD00080E48093A90380E18093AA0380E580935A
:100AE000AB0361E0809198030E948A028091990390
:100AF0008F3F19F061E00E948A0261E080919A03C1
:100B00000E948A02C4E9D3E09E01245933408091B7
:100B1000A30384FD0BC084E090E0219628173907D9
:100B200044F461E08E810E948A02EECF88E090E07A
:100B3000F4CF8BE39DE00197F1F760E0809198039B
:100B40000E94C60160E080919A030E94C6018091D4
:100B500099038F3F19F060E00E94C6016091A303E2
:100B600064FD3CC063E084E993E00E949104CBE41F
:100B7000D6E4CE010197F1F763E084E993E00E94A7
:100B800091042197F1F763E084E993E00E949104D6
:100B900083E592E00197F1F762E084E993E00E9437
:100BA00091046091A303606284E993E00E941705B9
:100BB00084E08093A4036CE084E993E00E9417052D
:100BC00084E993E00E94530582E08093A50366E0E8
:100BD00084E993E0DF91CF910C941705606284E97A
:100BE00093E00E9417058BE496E40197F1F760917A
:100BF000A303606284E993E00E94170583E592E015
:100C00000197F1F76091A303606284E993E00E9489
:100C10001705C7CFFB0101900020E9F73197AF011D
:100C2000461B570BDC01ED91FC910280F381E02D16
:100C300009948F929F92AF92BF92EF92FF920F937F
:100C40001F93CF93DF93CDB7DEB7A1970FB6F8947C
:100C5000DEBF0FBECDBF7C01FA01CB0119A222304D
:100C600008F42AE08E010F5D1F4F822E912CB12CCB
:100C7000A12CBF01A50194010E94A412F901CA018F
:100C80006A300CF5605DD8016E938D01232B242B07
:100C9000252B79F790E080E0109721F0BD01C70186
:100CA0000E940A06A1960FB6F894DEBF0FBECDBF14
:100CB000DF91CF911F910F91FF90EF90BF90AF9078
:100CC0009F908F900895695CDECFCF92DF92EF9274
:100CD000FF920F931F93CF93DF9377FF1DC06A019D
:100CE0007B01EC016DE20E9412038C014427552721
:100CF000BA014C195D096E097F092AE0CE010E94F4
:100D00001906800F911FDF91CF911F910F91FF90D6
:100D1000EF90DF90CF9008952AE0DF91CF911F915F
:100D20000F91FF90EF90DF90CF900C941906AB01DC
:100D3000770F660B770B0C946506CF93DF93BC019E
:100D400087E692E00E940A06EC016DE371E087E617
:100D500092E00E940A068C0F9D1FDF91CF910895AB
:100D60004F925F926F927F928F929F92AF92BF92BB
:100D7000EF92FF920F931F93CF93DF938C014A0161
:100D80005B01E22EAB019401CB01B4010E948A12F7
:100D900060E471E0811126C024013501E89477F800
:100DA0002FEF3FEF4FE75FE7C301B2010E948A12C6
:100DB00081110CC02FEF3FEF4FE75FE7C301B20196
:100DC0000E947A1064E471E0181664F02FEF3FEF90
:100DD0004FE75FE4C501B4010E94D21118169CF4DC
:100DE00068E471E0C801DF91CF911F910F91FF90EE
:100DF000EF90BF90AF909F908F907F906F905F909B
:100E00004F900C940A062FEF3FEF4FE75FECC501C0
:100E1000B4010E947A1087FDE3CF20E030E0A90101
:100E2000C501B4010E947A10D0E0C0E087FF09C07C
:100E30006DE2C8010E941203EC01B7FAB094B7F852
:100E4000B094FE2C712C60E070E080E09FE37E1493
:100E500040F420E030E040E251E40E947F107394BF
:100E6000F6CFA50194010E940E104B015C010E9477
:100E7000F1102B013C012AE0BC01A201C8010E9433
:100E80001906C80FD91FEE20D1F1C301B2010E948B
:100E900020119B01AC01C501B4010E940D104B0152
:100EA0005C016EE2C8010E941203C80FD91FFA94B8
:100EB0008FEFF81621F120E030E040E251E4C50167
:100EC000B4010E94D7112B013C010E94F1104B018B
:100ED000B12CA12C2AE0B501A401C8010E94190679
:100EE000C80FD91FC501B4010E9420119B01AC019C
:100EF000C301B2010E940D104B015C01D8CFCE019D
:100F0000DF91CF911F910F91FF90EF90BF90AF9025
:100F10009F908F907F906F905F904F900895611594
:100F2000710511F00C940A0690E080E008952F926C
:100F30003F924F925F926F927F928F929F92AF9269
:100F4000BF92CF92DF92EF92FF920F931F93CF93B6
:100F5000DF93CDB7DEB72A970FB6F894DEBF0FBE8A
:100F6000CDBF2DB63EB6809118018823E9F080915F
:100F70000403909105031092180140E151E06FE0E5
:100F80000E941A0548E051E06EE0809104039091C0
:100F900005030E941A0540E051E06DE080910403D2
:100FA000909105030E941A05E0912303F0E0EE0FF3
:100FB000FF1FEA5FFC4F8080918000910403109135
:100FC0000503D4015A96BC905A9758968C91BB2031
:100FD00011F08B1508F4B82EF401A18C2B2D30E004
:100FE000AB1408F470C0A394AB18A9014A0D511DAD
:100FF0008417150614F4A82EAB185A2CA9014A0D13
:10100000511D5A874987252D2A19852D90E0A985DC
:10101000BA858A179B070CF0CDC1F401418C880F6B
:10102000991FE80FF91FC080D180D40158968C9188
:10103000B81610F4F6012083D6014C9111966C91EC
:10104000C8010E944205F601B196FC83EB8376014C
:101050009601265F3F4F3E832D83AB81BC818D91EE
:10106000BC83AB83813409F401C108F05EC08032D7
:1010700009F4CEC0C0F5893009F4BCC030F5813028
:1010800009F4DFC0883009F4A9C0B2E0EB0EF11C0E
:10109000ED81FE81EE15FF0501F7541077C1D601F1
:1010A00014968C91823009F461C1833009F470C1C7
:1010B000813009F07BC1D801ED91FC910190F08164
:1010C000E02D6FE061C1A12C98CF803109F499C067
:1010D0008131D9F6D7015796ED91FC91408151812C
:1010E00070E060E0A9C08C3309F46FC0A0F48132D5
:1010F00009F49AC0823349F6F601258130E0D70120
:101100005796ED91FC914081518162817381C801B4
:101110000E94B006BACF8F3308F0B7CFF7016789C6
:10112000708DC8010E948F07B0CF893D09F4FCC0C3
:1011300020F5803D09F4E2C080F4863409F488C0CB
:10114000893C09F0A2CFD7015796ED91FC913097D9
:1011500009F49BCF0995682F79C0813D09F4DAC065
:10116000883D09F092CFD7015796ED91FC913097C9
:1011700009F48BCF0995BC0139C0803F09F4E9C05F
:1011800088F4883E09F4DAC0893E09F07ECFD701A1
:101190005796ED91FC91309709F477CF0995AB0103
:1011A000BC014AC08B3F09F49FC08C3F09F49CC02E
:1011B0008A3F09F06ACFD7015796ED91FC9130979D
:1011C00009F463CF0995682F05C0D7015796ED91B3
:1011D000FC916081C8010E94120357CFD701579636
:1011E000ED91FC916081062E000C770BC8010E94E6
:1011F00097064BCFD7015796ED91FC91408150E077
:101200006FCFD7015796ED91FC9160817181EECF40
:10121000D7015796ED91FC91408151816281738194
:10122000C8010E94650631CFD7015796ED91FC9118
:1012300040815181628173812AE0C8010E941906B0
:1012400024CFD7015796ED91FC91608170E0CECF0D
:10125000F701A789B08DF80180819181FC0120817F
:1012600031816C91C801F90109950FCF2DB73EB7B7
:1012700038872F83D70157966D907C90C3010E94C9
:1012800004109A83898389819A81EDB7FEB7E81BA0
:10129000F90B0FB6F894FEBF0FBEEDBF6DB77EB76A
:1012A0006F5F7F4F20E0822F90E049815A81841741
:1012B000950754F4F301E80FF91FE491860F971F87
:1012C000DC01EC932F5FEFCFE981FA81E60FF71F86
:1012D0001082C8010E948F07EF81F8850FB6F8943D
:1012E000FEBF0FBEEDBFD1CED7015796ED91FC9159
:1012F000309709F4CACE0995BC0113CFD701579690
:10130000ED91FC91309709F4C0CE0995682F880FB4
:10131000770B6CCFD7015796ED91FC91309709F47C
:10132000B4CE0995482F6BCFD7015796ED91FC911C
:10133000309709F4AACE0995AC01D2CED7015796C1
:10134000ED91FC91309709F4A0CE0995AB01BC0159
:1013500067CFD7015796ED91FC91309709F495CE60
:101360000995AB01BC0122E030E0D1CEF6016181EC
:1013700061504081C8010E944205D801ED91FC9165
:101380000190F081E02D6EE0C801099553943BCEA9
:10139000F60142816381C8010E944205D801ED91A6
:1013A000FC910190F081E02D6DE0EECF21E0F6019F
:1013B000248381CE0FB6F8943EBE0FBE2DBE2A9672
:1013C0000FB6F894DEBF0FBECDBFDF91CF911F9156
:1013D0000F91FF90EF90DF90CF90BF90AF909F90D4
:1013E0008F907F906F905F904F903F902F900895D7
:1013F0001F93CF93DF9385ED8093BC008091EF0125
:101400009091F001A091F101B091F2010796A11D18
:10141000B11D23E0B695A795979587952A95D1F7A5
:101420002091BC0024FD03C01092370252C04091AD
:10143000EF015091F0016091F1017091F201452BA3
:10144000462B472B69F30097A105B10541F02AE22D
:101450002A95F1F700C00197A109B109E1CF809168
:10146000EE01C1E0C093ED01882399F1D091B8005D
:101470001091BA008091BC008A7B8093BC0060E030
:1014800082E10E94C60160E083E10E94C6011092E1
:101490003702C09339021092380261E082E10E9463
:1014A000C60161E083E10E94C6018091B9008E7F90
:1014B0008093B9008091B9008D7F8093B90088E452
:1014C0008093B80085E48093BC001093BA00D09359
:1014D000B800DF91CF911F9108951F920F920FB620
:1014E0000F9211242F933F938F939F93AF93BF93AA
:1014F00080915F0290916002A0916102B0916202BE
:1015000030915E0223E0230F2D3758F50196A11D7F
:10151000B11D20935E0280935F0290936002A093BE
:101520006102B09362028091630290916402A09183
:101530006502B09166020196A11DB11D8093630200
:1015400090936402A0936502B0936602BF91AF913D
:101550009F918F913F912F910F900FBE0F901F90F1
:10156000189526E8230F0296A11DB11DD2CF1F9218
:101570000F920FB60F9211242F933F934F935F93C7
:101580006F937F938F939F93AF93BF93EF93FF934B
:1015900087E692E00E949703FF91EF91BF91AF9190
:1015A0009F918F917F916F915F914F913F912F917B
:1015B0000F900FBE0F901F9018951F920F920FB6AD
:1015C0000F9211242F938F939F93EF93FF93E091AA
:1015D0007702F09178028081E0917D02F0917E02A5
:1015E00082FD1BC09081809180028F5F8F7320915C
:1015F0008102821741F0E0918002F0E0E959FD4F4D
:10160000958F80938002FF91EF919F918F912F9101
:101610000F900FBE0F901F9018958081F4CF1F92EE
:101620000F920FB60F9211242F933F934F935F9316
:101630006F937F938F939F93AF93BF93EF93FF939A
:101640008091B900887F803609F44AC0F0F588326D
:1016500009F4A5C018F5803109F499C0B8F48823BD
:1016600009F4F5C0883009F492C0FF91EF91BF9161
:10167000AF919F918F917F916F915F914F913F912A
:101680002F910F900FBE0F901F901895883109F47D
:1016900086C0803251F78093360214C0803409F43A
:1016A0009BC040F48033B9F38833F9F68093360257
:1016B00085ECAEC0803509F483C0883509F494C048
:1016C000883499F60E94F809D0CF883909F48AC085
:1016D00038F5883729F050F4883611F0803729F62C
:1016E00083E0809337021092350255C0883809F4A0
:1016F00079C0803919F0803809F0B7CF8091350270
:10170000803208F06FC0E091350281E08E0F809347
:1017100035028091BB00F0E0EB5EFD4F80833BC063
:10172000803B39F0D0F4803A09F477C0883A09F068
:101730009CCF84E08093370210921402109213021F
:10174000F0E0E0E009958091130281110FC081E083
:10175000809313021092F30109C0803C09F4A8CFD2
:10176000883C09F4A5CF883B09F07FCFE0911402B3
:1017700081E08E0F80931402F0E0ED50FE4F8081E7
:101780008093BB00909114028091130229C0809134
:101790005C028093BB0085EC8093BC0066CF909187
:1017A0005B0280915A02981758F5E0915B0281E044
:1017B0008E0F80935B02F0E0E65CFD4F8081E9CF05
:1017C000E0915B0281E08E0F80935B028091BB0011
:1017D000F0E0E65CFD4F808390915B0280915A02BD
:1017E0009817C8F285E8D8CFE0915B0281E08E0FB0
:1017F00080935B028091BB00F0E0E65CFD4F80834C
:101800008091390281115ECF81E08093380284EAB1
:101810008093BC001092370228CF85EC8093BC00E7
:101820001092370280913502803230F4E091350217
:10183000F0E0EB5EFD4F10826091350270E085E1D3
:1018400092E0F0E0E0E00995109235020ECF1092A0
:10185000360238CFCF92DF92FF920F931F93CF9330
:10186000DF93E7E6F2E01382128288EE93E0A0E0D5
:10187000B0E084839583A683B78383E291E091836C
:10188000808385EC90E09587848784EC90E097874F
:10189000868780EC90E0918B808B81EC90E0938B3D
:1018A000828B82EC90E0958B848B86EC90E0978B1A
:1018B000868B118E128E138E148ECFEAD3E083E0C6
:1018C0008B870FEF0E870D870C878EEA93E0998345
:1018D00088831B8E82E090E00E94CC1225E5DC011B
:1018E0002C9311961C929B838A8380E492E4AFE050
:1018F000B0E08C839D83AE83BF8381E090E09987C5
:10190000888784E0F82EFA8612E01093AD0361E038
:1019100082E00E948A0294E9C92E93E0D92EE60162
:101920001B821A8285E391E09983888388E08C8307
:101930000D8389E08E83FF8285E0888786E0898732
:1019400087E08A871B861C861D861E861F8681E08F
:101950000E945B05EDE6F3E021E020831182128214
:1019600003832483158316A2148E138E13A2168E5E
:10197000158E14A210A2178E15A210861782128639
:1019800011861486138616861586108A1786128A83
:10199000118A148A138A168A158A89E693E0908F31
:1019A000878B82E381A38CE491E0928F818F8EE319
:1019B00082A31683A2E4B3E01C9211961C921197A5
:1019C00012960C93129713960C93139714962C93CC
:1019D000149715961C93159796961C9296975C965D
:1019E0001C921E925B9793961C9293975E961C9204
:1019F0001E925D9794961C92949790961C921E92BC
:101A00005F9795961C92959718961C921E92179721
:101A10001A961C921E9219971C961C921E921B9746
:101A20001E961C921E921D9750961C921E921F97F6
:101A300052961C921E92519754961C921E92539746
:101A400056961C921E92559740E453E058965C932C
:101A50004E93579790E191969C93919740E951E06E
:101A60005A965C934E93599792968C9392971696AA
:101A70001C93169784E293E0EC011B8EB983A88334
:101A8000FB83EA83188F198F1A8FE4E0F3E0D18289
:101A9000C082178E93838283268FDF91CF911F910F
:101AA0000F91FF90DF90CF900895CF93DF9300D0F8
:101AB0001F92CDB7DEB7789484B5826084BD84B5BB
:101AC000816084BD85B5826085BD85B5816085BD39
:101AD00080916E00816080936E00109281008091F1
:101AE0008100826080938100809181008160809379
:101AF0008100809180008160809380008091B1009E
:101B000084608093B1008091B00081608093B000C8
:101B100080917A00846080937A0080917A0082605C
:101B200080937A0080917A00816080937A0080911E
:101B30007A00806880937A001092C1008091BA0385
:101B40008F3F41F061E00E948A0261E08091BA0318
:101B50000E94C6018091AF039091B003892B09F4D4
:101B60001AC21FB7F89480915D02811127C0E0E985
:101B7000F0E08491E4EAF0E09491E82FF0E0EE0FD9
:101B8000FF1FE859FF4FA591B491EC91E92321F48F
:101B900061E08AE00E94C60161E08AE00E948A0258
:101BA0008CB580618CBD8CB580648CBD61E08DE0AE
:101BB0000E948A0261E08BE00E948A0280915D02AD
:101BC0008F5F80935D021FBF81E08093CA0380E036
:101BD0000E945C02682F606180E00E94280280E021
:101BE0000E947B0280E00E945C02682F6F7B80E095
:101BF0000E94280260E086E00E94280260E085E002
:101C00000E9428026FEF84E00E9428026FEF83E0B9
:101C10000E9428020E94720282E00E945B0580916D
:101C20000403909105030E9453050E949707E091D9
:101C30007702F091780282E08083E0917302F09164
:101C400074021082E0917502F09176028FEC80832D
:101C500010927F02E0917B02F0917C0286E080830B
:101C6000E0917902F0917A02808180618083E09135
:101C70007902F0917A02808188608083E091790214
:101C8000F0917A02808180688083E0917902F091FE
:101C90007A0280818F7D808300E010E02FB7F89476
:101CA00060915F0270916002809161029091620286
:101CB0002FBF28EE33E040E050E00E94A4123093A2
:101CC0004103209340030E94720281E00E947B0244
:101CD0006AE070E080E090E00E94E00280E00E9414
:101CE0005C02682F606280E00E94280261E470E07C
:101CF00080E090E00E94E00219821A8281E08B83EA
:101D000042E050E0BE016F5F7F4FCE0103960E941C
:101D10003902E980FA80FE24EF24FE2480E00E944C
:101D20007B02F694E794B70190E080E00E942011D6
:101D300020E030E040E058E30E94D71120E030E09E
:101D400047ED53E40E94D7114B015C012FE63DE6BD
:101D500046EC52EB0E94D71126E133E843E957E302
:101D60000E940E100E944A1222E331E140E85BE338
:101D70000E940D102FE735E04BE955EB0E947F10D4
:101D80006B017C0120E030E0A9010E94D21187FFA5
:101D900070C020E030E048EC52E4C501B4010E947C
:101DA0007F1020E030E048EC52E40E94D7116B0134
:101DB0007C012BE532E44EE050E40E94D7112FE184
:101DC00035E042E753E40E940D102B013C01A701CE
:101DD0009601C701B6010E94D7114B015C0124E3B3
:101DE00038E749E25BE30E94D711A30192010E9408
:101DF0000E102B013C01A5019401C701B6010E9400
:101E0000D7114B015C0126E03FEE41EA56E30E9408
:101E1000D7119B01AC01C301B2010E940D102B012F
:101E20003C01A5019401C701B6010E94D7114B01E5
:101E30005C0123E137E142EF52E30E94D7119B019D
:101E4000AC01C301B2010E940D102B013C01A501A0
:101E50009401C701B6010E94D7112BE339E947E28B
:101E60005FE20E94D711A30192010E940E106B0144
:101E70007C01C0926903D0926A03E0926B03F092F6
:101E80006C0380910403909105030E9453050E9406
:101E9000970768EE73E080E090E00E94E002C09057
:101EA0006903D0906A03E0906B03F0906C0320E02C
:101EB00030E048EC52E4C701B6010E947A1087FF77
:101EC0008EC00E94F401682F70E087E692E00E94C5
:101ED00097066DE371E087E692E00E940A0680E0D3
:101EE0000E945C028171682F646880E00E94280271
:101EF00061E070E080E090E00E94E00287E00E94F4
:101F00005C02F82E8823D9F16FE471E087E692E055
:101F10000E948F074F2D50E070E060E020E187E6DF
:101F200092E00E9419066DE371E087E692E00E945C
:101F30000A06F7FE04C088E591E00E949D06F6FEC1
:101F400004C08BE691E00E949D06F5FE04C08DE77B
:101F500091E00E949D06F4FE04C082E991E00E9497
:101F60009D06F3FE04C085EB91E00E949D06F2FE03
:101F700004C088ED91E00E949D060E947202011546
:101F8000110509F48BCE0E948303882309F486CEC1
:101F90000E94000083CE61E08091BB030E948A0210
:101FA0008091B9038B7F60E009F061E08091BB0311
:101FB0000E94C6018091BC038F3F41F061E00E9406
:101FC0008A0261E08091BC030E94C6018091BD033A
:101FD0008F3F09F4F9CD60E00E948A02F5CD20E040
:101FE00030E04CE053E4C701B6010E94D21118164C
:101FF0000CF075CF66CF8091B1039091B20300973A
:1020000011F00C9468130895FC0105900020E9F785
:10201000809590958E0F9F1F08955058BB27AA2733
:102020000E9425100C9498110E948A1138F00E9489
:10203000911120F039F49F3F19F426F40C94871184
:102040000EF4E095E7FB0C948111E92F0E94A91191
:1020500058F3BA17620773078407950720F079F4DD
:10206000A6F50C94CB110EF4E0950B2EBA2FA02DF3
:102070000B01B90190010C01CA01A0011124FF2735
:10208000591B99F0593F50F4503E68F11A16F04030
:10209000A22F232F342F4427585FF3CF469537952F
:1020A0002795A795F0405395C9F77EF41F16BA0BF4
:1020B000620B730B840BBAF09150A1F0FF0FBB1FA2
:1020C000661F771F881FC2F70EC0BA0F621F731FEB
:1020D000841F48F4879577956795B795F7959E3F48
:1020E00008F0B0CF9395880F08F09927EE0F9795D9
:1020F000879508950E945D1108F481E008950E947B
:1021000093100C9498110E94911158F00E948A111A
:1021100040F029F45F3F29F00C94811151110C9487
:10212000CC110C9487110E94A91168F39923B1F383
:10213000552391F3951B550BBB27AA2762177307ED
:10214000840738F09F5F5F4F220F331F441FAA1F81
:10215000A9F335D00E2E3AF0E0E832D0915050403D
:10216000E695001CCAF72BD0FE2F29D0660F771FEB
:10217000881FBB1F261737074807AB07B0E809F0D1
:10218000BB0B802DBF01FF2793585F4F3AF09E3F56
:10219000510578F00C9481110C94CC115F3FE4F35D
:1021A000983ED4F3869577956795B795F7959F5F99
:1021B000C9F7880F911D9695879597F90895E1E0E5
:1021C000660F771F881FBB1F621773078407BA0744
:1021D00020F0621B730B840BBA0BEE1F88F7E0959F
:1021E00008950E94B11188F09F5798F0B92F992750
:1021F000B751B0F0E1F0660F771F881F991F1AF0F2
:10220000BA95C9F714C0B13091F00E94CB11B1E07A
:1022100008950C94CB11672F782F8827B85F39F079
:10222000B93FCCF3869577956795B395D9F73EF48A
:1022300090958095709561957F4F8F4F9F4F089532
:10224000E89409C097FB3EF4909580957095619550
:102250007F4F8F4F9F4F9923A9F0F92F96E9BB2706
:102260009395F695879577956795B795F111F8CF82
:10227000FAF4BB0F11F460FF1BC06F5F7F4F8F4FED
:102280009F4F16C0882311F096E911C0772321F0E3
:102290009EE8872F762F05C0662371F096E8862F7B
:1022A00070E060E02AF09A95660F771F881FDAF7D2
:1022B000880F9695879597F90895990F0008550FFF
:1022C000AA0BE0E8FEEF16161706E807F907C0F0BC
:1022D00012161306E407F50798F0621B730B840BC4
:1022E000950B39F40A2661F0232B242B252B21F49E
:1022F00008950A2609F4A140A6958FEF811D811D3E
:10230000089597F99F6780E870E060E008959FEF77
:1023100080EC089500240A9416161706180609067C
:10232000089500240A94121613061406050608954B
:10233000092E0394000C11F4882352F0BB0F40F4D3
:10234000BF2B11F460FF04C06F5F7F4F8F4F9F4F13
:10235000089557FD9058440F551F59F05F3F71F095
:102360004795880F97FB991F61F09F3F79F08795FC
:102370000895121613061406551FF2CF4695F1DF85
:1023800008C0161617061806991FF1CF8695710515
:10239000610508940895E894BB2766277727CB0149
:1023A00097F908950E945D1108F48FEF08950E9437
:1023B000EA110C9498110E948A1138F00E94911130
:1023C00020F0952311F00C9481110C9487111124A5
:1023D0000C94CC110E94A91170F3959FC1F3950F35
:1023E00050E0551F629FF001729FBB27F00DB11D99
:1023F000639FAA27F00DB11DAA1F649F6627B00D29
:10240000A11D661F829F2227B00DA11D621F739F11
:10241000B00DA11D621F839FA00D611D221F749F1F
:102420003327A00D611D231F849F600D211D822F66
:10243000762F6A2F11249F5750409AF0F1F088238D
:102440004AF0EE0FFF1FBB1F661F771F881F9150BA
:102450005040A9F79E3F510580F00C9481110C94D7
:10246000CC115F3FE4F3983ED4F38695779567955A
:10247000B795F795E7959F5FC1F7FE2B880F911DE4
:102480009695879597F9089519F416F40C94871189
:102490000C948F120E94B111B8F39923C9F3B6F3CB
:1024A0009F57550B87FF0E949D120024A0E640EA2B
:1024B000900180585695979528F4805C660F771F99
:1024C000881F20F026173707480730F4621B730B6C
:1024D000840B202931294A2BA6951794079420258F
:1024E00031254A2758F7660F771F881F20F02617D7
:1024F0003707480730F4620B730B840B200D311D36
:10250000411DA09581F7B901842F9158880F9695A8
:10251000879508950E945D11880B990B08959F3F40
:1025200031F0915020F4879577956795B795880F8E
:10253000911D9695879597F9089591505040660F93
:10254000771F881FD2F70895A1E21A2EAA1BBB1B82
:10255000FD010DC0AA1FBB1FEE1FFF1FA217B3076F
:10256000E407F50720F0A21BB30BE40BF50B661F85
:10257000771F881F991F1A9469F760957095809549
:1025800090959B01AC01BD01CF010895EE0FFF1F97
:102590000590F491E02D09940F931F93CF93DF934F
:1025A0008230910510F482E090E0E091CD03F0914B
:1025B000CE0330E020E0B0E0A0E0309799F42115A0
:1025C000310509F44AC0281B390B24303105D8F5F0
:1025D0008A819B816115710589F1FB019383828357
:1025E000FE0111C0408151810281138148175907B2
:1025F000E0F04817590799F4109761F012960C9380
:10260000129713961C933296CF01DF91CF911F91B1
:102610000F9108950093CD031093CE03F4CF2115AD
:10262000310551F04217530738F0A901DB019A0137
:10263000BD01DF01F801C1CFEF01F9CF9093CE03C7
:102640008093CD03CDCFFE01E20FF31F81939193D1
:102650002250310939832883D7CF2091CB03309181
:10266000CC03232B41F420911B0130911C013093AA
:10267000CC032093CB032091190130911A0121152D
:10268000310541F42DB73EB740911D0150911E0117
:10269000241B350BE091CB03F091CC03E217F30739
:1026A000A0F42E1B3F0B2817390778F0AC014E5FC2
:1026B0005F4F2417350748F04E0F5F1F5093CC0330
:1026C0004093CB03819391939FCFF0E0E0E09CCFC8
:1026D000CF93DF930097E9F0FC01329713821282C7
:1026E000A091CD03B091CE03ED0130E020E0109732
:1026F000A1F420813181820F931F2091CB0330916F
:10270000CC032817390709F061C0F093CC03E0939C
:10271000CB03DF91CF910895EA01CE17DF07E8F5EB
:102720004A815B819E0141155105B1F7E901FB83A7
:10273000EA8349915991C40FD51FEC17FD0761F445
:10274000808191810296840F951FE9019983888386
:10275000828193819B838A83F0E0E0E012968D91E1
:102760009C9113970097B9F52D913C911197CD014C
:102770000296820F931F2091CB033091CC03281730
:10278000390739F6309751F51092CE031092CD03E8
:10279000B093CC03A093CB03BCCFD383C28340813F
:1027A0005181840F951FC817D90761F44E5F5F4FA1
:1027B00088819981480F591F518340838A819B8169
:1027C000938382832115310509F0B0CFF093CE03B6
:1027D000E093CD039ECFFD01DC01C0CF13821282B6
:1027E000D7CF10E0C2E6D0E004C0FE010E94C612BE
:1027F0002196C336D107C9F7F894FFCF00000E0E1B
:102800000E0000000004021F020400000004081F64
:1028100008040000010000CF03800000000000B9A0
:1028200003190346030604770355036903000000F8
:102830000011051903780477040D0A006E616E001B
:10284000696E66006F7666002043004661756C74A1
:1028500020307800525444204869676820546872D8
:102860006573686F6C6400525444204C6F77205439
:1028700068726573686F6C6400524546494E2D203E
:102880003E20302E38352078204269617300524551
:1028900046494E2D203C20302E3835207820426984
:1028A0006173202D20464F5243452D206F70656E79
:1028B00000525444494E2D203C20302E383520788B
:1028C0002042696173202D20464F5243452D206FD1
:1028D00070656E00556E6465722F4F766572207656
:0828E0006F6C74616765000074
:107E0000112484B714BE81FFF0D085E080938100F7
:107E100082E08093C00088E18093C10086E0809377
:107E2000C20080E18093C4008EE0C9D0259A86E02C
:107E300020E33CEF91E0309385002093840096BBD3
:107E4000B09BFECF1D9AA8958150A9F7CC24DD24C4
:107E500088248394B5E0AB2EA1E19A2EF3E0BF2EE7
:107E6000A2D0813461F49FD0082FAFD0023811F036
:107E7000013811F484E001C083E08DD089C08234E0
:107E800011F484E103C0853419F485E0A6D080C0E4
:107E9000853579F488D0E82EFF2485D0082F10E0AE
:107EA000102F00270E291F29000F111F8ED06801E7
:107EB0006FC0863521F484E090D080E0DECF843638
:107EC00009F040C070D06FD0082F6DD080E0C81688
:107ED00080E7D80618F4F601B7BEE895C0E0D1E017
:107EE00062D089930C17E1F7F0E0CF16F0E7DF06D8
:107EF00018F0F601B7BEE89568D007B600FCFDCFD4
:107F0000A601A0E0B1E02C9130E011968C91119780
:107F100090E0982F8827822B932B1296FA010C0160
:107F200087BEE89511244E5F5F4FF1E0A038BF0790
:107F300051F7F601A7BEE89507B600FCFDCF97BE46
:107F4000E89526C08437B1F42ED02DD0F82E2BD052
:107F50003CD0F601EF2C8F010F5F1F4F84911BD097
:107F6000EA94F801C1F70894C11CD11CFA94CF0C13
:107F7000D11C0EC0853739F428D08EE10CD085E9AC
:107F80000AD08FE07ACF813511F488E018D01DD067
:107F900080E101D065CF982F8091C00085FFFCCF94
:107FA0009093C60008958091C00087FFFCCF809118
:107FB000C00084FD01C0A8958091C6000895E0E648
:107FC000F0E098E1908380830895EDDF803219F02E
:107FD00088E0F5DFFFCF84E1DECF1F93182FE3DFCA
:107FE0001150E9F7F2DF1F91089580E0E8DFEE27F6
:047FF000FF270994CA
:027FFE00040479
:00000001FF
